:020000040800F2
:10000000000003208D040008D9040008D90400086A
:10001000D9040008D9040008D90400080000000031
:10002000000000000000000000000000D9040008EB
:10003000D904000800000000D9040008D904000811
:10004000D9040008D9040008D9040008D90400081C
:10005000D9040008D9040008D9040008D90400080C
:10006000D9040008D9040008D9040008D9040008FC
:10007000D9040008D9040008D9040008D9040008EC
:10008000D9040008D9040008D9040008D9040008DC
:10009000D9040008D9040008D9040008D9040008CC
:1000A000D9040008D9040008D9040008D9040008BC
:1000B000D9040008D9040008D9040008D9040008AC
:1000C000D9040008D9040008D9040008D90400089C
:1000D000D9040008D9040008D9040008D90400088C
:1000E000D9040008D9040008D9040008D90400087C
:1000F000D9040008D9040008D9040008D90400086C
:10010000D9040008D9040008D9040008D90400085B
:10011000D9040008D9040008D9040008D90400084B
:10012000D9040008D9040008D9040008D90400083B
:10013000D9040008D9040008D9040008D90400082B
:10014000D9040008D9040008D9040008D90400081B
:10015000D9040008D9040008D9040008D90400080B
:10016000D9040008D9040008D9040008D9040008FB
:10017000D9040008D9040008D904000800000000D0
:10018000D9040008D9040008D9040008D9040008DB
:10019000D9040008D9040008D9040008D9040008CB
:0C01A000D9040008D9040008D9040008A4
:1001AC0010B5054C237833B9044B13B10448AFF3A5
:1001BC0000800123237010BD080000200000000007
:1001CC002405000808B5034B1BB103490348AFF3E2
:1001DC00008008BD000000000C0000202405000871
:1001EC00A04A936943F0080393619F4BD3F8002C0A
:1001FC0042F48011C3F8001C22F4400141F4801039
:10020C00C3F8000C41F0805141F48011C3F8001C7C
:10021C0022F0404222F4400242F0805242F480121A
:10022C00C3F8002CD3F8042C42F01001C3F8041CC2
:10023C0022F0C00141F01001C3F8041C22F44C61FF
:10024C0041F01001C3F8041C22F44C4222F0C0020D
:10025C0042F01001C3F8041C42F40161C3F8041C01
:10026C0042F4084242F01002C3F8042CD3F80C2CD0
:10027C0042F48061C3F80C1C42F44062C3F80C2CAD
:10028C00B8E07A4B01221A70002300E00133784A5F
:10029C009342FBDD774A136801331360032B07D8B5
:1002AC00754A1268032A40F0AF80022B40F2AC80F2
:1002BC00704B01221A60A7E0704B01221A700023C8
:1002CC0000E001336A4A9342FBDD6B4A1368013349
:1002DC001360032B40F2A280134601221A609DE0AA
:1002EC00644B1B68012B14D0022B26D0032B40F03F
:1002FC009A805D4AD2F8103C43F40011C2F8101CED
:10030C0043F42003C2F8103C43F40073C2F8103CD1
:10031C0089E0554AD2F8103C43F02001C2F8101C79
:10032C0043F4000141F02001C2F8101C43F020738B
:10033C0043F02003C2F8103C75E04B4AD2F8103C55
:10034C0043F40011C2F8101C41F08001C2F8101CDB
:10035C0043F0087343F08003C2F8103C63E0454B54
:10036C001B68012B15D0022B25D0032B5FD13E4AE5
:10037C00D2F8103C43F02001C2F8101C43F40003E7
:10038C0043F02001C2F8101C43F40873C2F8103C6F
:10039C004DE0354AD2F8103C43F02001C2F8101C55
:1003AC0043F0A001C2F8101C43F0007343F0A0030B
:1003BC00C2F8103C3BE02C4AD2F8103C43F400133A
:1003CC00C2F8103C43F08001C2F8101C43F42073B7
:1003DC00C2F8103C2BE0244AD2F8103C43F0200128
:1003EC00C2F8101C43F0A001C2F8101C43F428738F
:1003FC00C2F8103C1C4BD3F8083C13F4806F3FF44C
:10040C0040AF1A4B00221A70174BD3F8083C13F468
:10041C00006F3FF451AF194B00221A70164B1B683A
:10042C00012B3FF45DAF144B1B68022B97D0124B82
:10043C001B68032BDED10F4B1B68012BCBD0022B7F
:10044C00D8D1094AD2F8103C43F40011C2F8101C60
:10045C0043F42001C2F8101C43F02873C2F8103C7E
:10046C00C8E700BF0010024000000140250000203A
:10047C00DF93040004000020000000202400002072
:10048C00DFF830D00C480D490D4A002302E0D45857
:10049C00C4500433C4188C42F9D30A4A0A4C0023C2
:1004AC0001E013600432A242FBD300F011F8FFF715
:1004BC0097FE704700000320000000200800002079
:1004CC00440500080800002028000020FEE700007A
:1004DC0070B50D4D0D4C641BA4100026A64209D11D
:1004EC000B4D0C4C00F018F8641BA4100026A6420F
:1004FC0005D170BD55F8043B98470136EEE755F829
:10050C00043B98470136F2E73C0500083C0500081F
:10051C003C05000840050008F8B500BFF8BC08BC55
:10052C009E467047F8B500BFF8BC08BC9E467047A5
:04053C00D1010008E1
:04054000AD01000801
:080544000100000001000000AD
:040000050800048D5E
:00000001FF
